:020000040800F2
:1000000000500020C90D0008910C0008970C000852
:100010009D0C0008A30C0008A90C000800000000BB
:10002000000000000000000000000000C14B0008BC
:10003000AF0C000800000000A14D0008E94D0008C9
:10004000110E0008110E0008110E0008110E000814
:10005000110E0008110E0008110E0008110E000804
:10006000110E0008110E0008110E0008110E0008F4
:10007000110E0008110E0008110E0008110E0008E4
:10008000110E0008110E0008110E0008110E0008D4
:10009000110E0008110E0008110E0008110E0008C4
:1000A000110E0008BD0C0008110E0008110E00080A
:1000B000110E0008110E0008110E0008110E0008A4
:1000C000110E0008110E0008110E0008110E000894
:1000D000110E0008110E0008110E0008110E000884
:1000E000110E0008110E0008110E0008000000009B
:1000F0000000000000000000000000000000000000
:0C01000000000000000000005FF808F1A3
:1001100010B5054C237833B9044B13B10448AFF341
:1001200000800123237010BD8C000020000000001F
:100130009054000808B5034B1BB103490348AFF3C3
:10014000008008BD000000009000002090540008CE
:1001500081F0004102E000BF83F0004330B54FEA78
:1001600041044FEA430594EA050F08BF90EA020FE5
:100170001FBF54EA000C55EA020C7FEA645C7FEA78
:10018000655C00F0E2804FEA5454D4EB5555B8BF9B
:100190006D420CDD2C4480EA020281EA030382EA0C
:1001A000000083EA010180EA020281EA0303362D9E
:1001B00088BF30BD11F0004F4FEA01314FF4801C71
:1001C0004CEA113102D0404261EB410113F0004F83
:1001D0004FEA03334CEA133302D0524263EB43033A
:1001E00094EA050F00F0A780A4F10104D5F1200ED8
:1001F0000DDB02FA0EFC22FA05F2801841F1000133
:1002000003FA0EF2801843FA05F359410EE0A5F106
:1002100020050EF1200E012A03FA0EFC28BF4CF037
:10022000020C43FA05F3C01851EBE37101F00045ED
:1002300007D54FF0000EDCF1000C7EEB00006EEBFA
:100240000101B1F5801F1BD3B1F5001F0CD3490884
:100250005FEA30004FEA3C0C04F101044FEA4452DB
:1002600012F5800F80F09A80BCF1004F08BF5FEA62
:10027000500C50F1000041EB045141EA050130BD42
:100280005FEA4C0C404141EB0101013C28BFB1F554
:10029000801FE9D291F0000F04BF01460020B1FA9F
:1002A00081F308BF2033A3F10B03B3F120020CDA72
:1002B0000C3208DD02F1140CC2F10C0201FA0CF050
:1002C00021FA02F10CE002F11402D8BFC2F1200CB5
:1002D00001FA02F120FA0CFCDCBF41EA0C0190406B
:1002E000E41AA2BF01EB0451294330BD6FEA0404B4
:1002F0001F3C1CDA0C340EDC04F11404C4F120029F
:1003000020FA04F001FA02F340EA030021FA04F3B0
:1003100045EA030130BDC4F10C04C4F1200220FA07
:1003200002F001FA04F340EA0300294630BD21FA45
:1003300004F0294630BD94F0000F83F4801306BF0B
:1003400081F480110134013D4EE77FEA645C18BFFF
:100350007FEA655C29D094EA050F08BF90EA020F96
:1003600005D054EA000C04BF1946104630BD91EA8E
:10037000030F1EBF0021002030BD5FEA545C05D191
:100380004000494128BF41F0004130BD14F58004D0
:100390003CBF01F5801130BD01F0004545F0FE4144
:1003A00041F470014FF0000030BD7FEA645C1ABF79
:1003B000194610467FEA655C1CBF0B46024650EAB0
:1003C000013406BF52EA033591EA030F41F40021DC
:1003D00030BD00BF90F0000F04BF0021704730B562
:1003E0004FF4806404F132044FF000054FF0000137
:1003F00050E700BF90F0000F04BF0021704730B5F8
:100400004FF4806404F1320410F0004548BF4042CC
:100410004FF000013EE700BF42004FEAE2014FEA21
:1004200031014FEA02701FBF12F07F4393F07F4FFC
:1004300081F06051704732F07F4208BF704793F0FF
:100440007F4F04BF41F40021704730B54FF4607412
:1004500001F0004521F000411CE700BF50EA010215
:1004600008BF704730B54FF000050AE050EA0102BE
:1004700008BF704730B511F0004502D5404261EB2E
:1004800041014FF4806404F132045FEA915C3FF46F
:10049000D8AE4FF003025FEADC0C18BF03325FEA0C
:1004A000DC0C18BF033202EBDC02C2F1200300FABD
:1004B00003FC20FA02F001FA03FE40EA0E0021FAE2
:1004C00002F11444BDE600BF4FEA4102B2F1E0433D
:1004D00024BFB3F5001CDCF1FE5C0DD901F0004C2B
:1004E0004FEAC0024CEA5070B2F1004F40EB83007B
:1004F00008BF20F00100704711F0804F21D113F1A7
:100500003872BCBF01F00040704741F480114FEADF
:100510005252C2F11802C2F1200C10FA0CF320FA68
:1005200002F018BF40F001004FEAC1234FEAD32385
:1005300003FA0CFC40EA0C0023FA02F34FEA4303EF
:10054000CCE77FEA625307D150EA01331EBF4FF078
:10055000FE4040F44000704701F0004040F0FE4093
:1005600040F40000704700BF80B500AF084A00218A
:10057000084802F077F90346074A1360074A00214A
:10058000074802F06FF90346064A136000BF80BDBA
:10059000E4540008A9050008C00000200855000820
:1005A000D1050008C400002080B584B000AF786099
:1005B0003223FB6003F072FB0346BB60012002F0B4
:1005C000FBF907F10803F968184603F099F9F5E714
:1005D00080B586B000AF78600A233B6103F05EFB14
:1005E0000346FB602A4B1B682A4A1360284B5B6852
:1005F000284A5360264B9B68264A9360244BDB684D
:10060000244AD360224B1B69224A1361204B5B6949
:10061000204A536153233B7207F108014FF47A7368
:1006200001221D4801F04DFF4FF47A731822194939
:10063000194801F046FF00237B6119E0144A7B69E9
:1006400052F823301846FFF7E7FE0FA3D3E9002343
:10065000FFF784FD02460B4610461946FFF734FFAC
:1006600002460B497B6941F823207B6901337B619A
:100670007B69052BE2DD07F10C033969184603F0AD
:100680003FF9AFE7AFF300809A9999999999B93FEB
:1006900000000020A80000201402002080B588B0CF
:1006A00000AF07F1100300221A605A609A60DA6006
:1006B000354B9B69344A43F020039361324B9B696D
:1006C00003F02003FB60FB682F4B9B692E4A43F02D
:1006D000040393612C4B9B6903F00403BB60BB686C
:1006E000294B9B69284A43F008039361264B9B6979
:1006F00003F008037B607B6800224FF48871234875
:1007000000F01EFE00224FF4C051214800F018FEF8
:1007100049F608033B611F4B7B610023BB6107F176
:1007200010031946194800F087FC4FF488733B61A9
:1007300001237B610023BB610223FB6107F11003EE
:100740001946124800F078FC4FF480633B61114B6E
:100750007B610023BB6107F1100319460C4800F0D0
:100760006BFC4FF4C0533B6101237B610023BB61F1
:100770000223FB6107F110031946054800F05CFCF9
:1007800000BF2037BD4680BD001002400008014078
:10079000000C01400000111080B500AF124B134A4D
:1007A0001A60114B124A5A600F4B00229A600E4B8E
:1007B0000022DA600C4B4FF480421A610A4B00228F
:1007C0005A61094B00229A61074B0022DA61064BFD
:1007D00000221A62044800F0CBFD0346002B01D032
:1007E00000F0B4F800BF80BDC800002000540040F5
:1007F000A086010080B588B000AF786007F11003D3
:1008000000221A605A609A60DA607B681B68154A99
:10081000934223D1144B9B69134A43F0080393611D
:10082000114B9B6903F00803FB60FB68C0233B612D
:1008300012237B610323FB6107F1100319460B4868
:1008400000F0FAFB084BDB69074A43F40013D3615D
:10085000054BDB6903F40013BB60BB6800BF2037A6
:10086000BD4680BD0054004000100240000C014015
:1008700080B500AF00F0CEFA00F011F8FFF70EFFE0
:1008800000F02CFAFFF788FF00F066F800F09AF805
:1008900001F082FFFFF768FE01F0B0FFFEE780B5D0
:1008A00090B000AF07F1180328220021184604F089
:1008B00029FD3B1D00221A605A609A60DA601A61B5
:1008C0000123BB614FF48033FB6100233B620123B2
:1008D000BB6202237B634FF48033BB634FF4E013AE
:1008E000FB6307F11803184600F086FE0346002B51
:1008F00001D000F02BF80F237B600223BB600023A4
:10090000FB604FF480633B6100237B613B1D022150
:10091000184601F0F3F80346002B01D000F016F85A
:1009200000BF4037BD4680BD80B582B000AF786063
:100930007B681B68044A934201D100F081FA00BF32
:100940000837BD4680BD00BF002C014080B400AF19
:1009500072B600BFFEE7000080B500AF174B184A23
:100960001A60164B4FF482725A60144B00229A6040
:10097000124B0022DA60114B00221A610F4B002249
:100980005A610E4B4FF400729A610C4B1822DA61D7
:100990000A4B00221A62094B00225A62074B0022BE
:1009A0009A62064B0A22DA62044801F06FFA0346A3
:1009B000002B01D0FFF7CAFF00BF80BD1C01002043
:1009C0000030014080B500AF174B184A1A60164B33
:1009D0004FF482725A60144B00229A60124B00222C
:1009E000DA60114B00221A610F4B00225A610E4B44
:1009F0004FF400729A610C4B1022DA610A4B00220C
:100A00001A62094B00225A62074B00229A62064B77
:100A10000A22DA62044801F039FA0346002B01D0B9
:100A2000FFF794FF00BF80BD740100200038004034
:100A300080B58AB000AF786007F1180300221A6011
:100A40005A609A60DA607B681B68374A934230D1FB
:100A5000364B9B69354A43F480539361334B9B6912
:100A600003F480537B617B69304B9B692F4A43F0D1
:100A7000040393612D4B9B6903F004033B613B69C5
:100A8000A023BB610223FB6103237B6207F11803F0
:100A90001946274800F0D0FA4023BB610023FB61D0
:100AA00000233B6207F118031946214800F0C4FAFD
:100AB00036E07B681B681F4A934231D11B4BDB69D0
:100AC0001A4A43F48043D361184BDB6903F4804333
:100AD000FB60FB68154B9B69144A43F00803936164
:100AE000124B9B6903F00803BB60BB684FF42043C3
:100AF000BB610223FB6103237B6207F118031946E4
:100B00000D4800F099FA4FF48043BB610023FB616C
:100B100000233B6207F118031946074800F08CFADE
:100B200000BF2837BD4680BD0030014000100240A4
:100B30000008014000380040000C014080B584B03E
:100B400000AF184B9B69174A43F001039361154BA3
:100B50009B6903F00103BB60BB68124BDB69114A60
:100B600043F08053D3610F4BDB6903F080537B600C
:100B70007B6800220F216FF0010000F032FA0A4B6F
:100B80005B68FB60FB6823F0E063FB60FB6843F09D
:100B90000073FB60044AFB68536000BF1037BD461A
:100BA00080BD00BF001002400000014080B58CB045
:100BB00000AF78600023BB6200237B62002387F8CC
:100BC0002F302E4B9B692D4A43F4006393612B4BCE
:100BD0009B6903F40063BB60BB6807F10C0207F17B
:100BE00010031146184601F003F901F0EDF8B86260
:100BF000BB6A234AA2FB03239B0C013B7B62214B74
:100C0000214A1A601F4B40F2E732DA601D4A7B6AC4
:100C100053601C4B00221A611A4B00229A60194B38
:100C200000229A61174801F0B5F9034687F82F3082
:100C300097F82F30002B1BD1124801F003FA03461E
:100C400087F82F3097F82F30002B11D1192000F0A2
:100C5000E4F97B680F2B08D800227968192000F08E
:100C6000C0F90A4A7B68136002E0012387F82F303D
:100C700097F82F3018463037BD4680BD001002402F
:100C800083DE1B43CC010020002C01401C0000200F
:100C900080B400AFFEE780B400AFFEE780B400AFE1
:100CA000FEE780B400AFFEE780B400AFFEE780B49B
:100CB00000AF00BFBD4680BC7047000080B500AFEC
:100CC000024801F011FA00BF80BD00BFCC01002036
:100CD00080B400AF00BFBD4680BC704780B500AF98
:100CE000114B124A1A60104B4FF461225A600E4B9E
:100CF00000229A600C4B0022DA600B4B00221A6132
:100D0000094B0C225A61084B00229A61064B0022C3
:100D1000DA61054801F088FB0346002B01D0FFF79C
:100D200015FE00BF80BD00BF140200200038014046
:100D300080B588B000AF786007F1100300221A6018
:100D40005A609A60DA607B681B681C4A934231D112
:100D50001B4B9B691A4A43F480439361184B9B6970
:100D600003F48043FB60FB68154B9B69144A43F016
:100D700004039361124B9B6903F00403BB60BB68DF
:100D80004FF400733B6102237B610323FB6107F196
:100D9000100319460B4800F04FF94FF480633B6194
:100DA00000237B610023BB6107F11003194605484E
:100DB00000F042F900BF2037BD4680BD0038014039
:100DC00000100240000801400C480D490D4A002364
:100DD00002E0D458C4500433C4188C42F9D30A4AF0
:100DE0000A4C002301E013600432A242FBD3FFF758
:100DF0006FFF04F053FAFFF73BFD7047000000203F
:100E00008C000020AC5500088C0000206C1C0020D9
:100E1000FEE7000080B500AF084B1B68074A43F0AF
:100E200010031360032000F0D1F80F20FFF7BEFE7F
:100E3000FFF784FE0023184680BD00BF002002405B
:100E400080B400AF054B1B781A46054B1B68134452
:100E5000034A136000BFBD4680BC704720000020DD
:100E60005802002080B400AF024B1B681846BD46F4
:100E700080BC70475802002080B485B000AF786015
:100E80007B6803F00703FB600C4BDB68BB60BA6850
:100E90004FF6FF031340BB60FB681A02BB681343A5
:100EA00043F0BF6343F40033BB60044ABB68D360C4
:100EB00000BF1437BD4680BC704700BF00ED00E0A6
:100EC00080B400AF044BDB681B0A03F0070318462D
:100ED000BD4680BC704700BF00ED00E080B483B029
:100EE00000AF0346FB7197F90730002B0BDBFB7952
:100EF00003F01F02064997F907305B09012000FA49
:100F000002F241F8232000BF0C37BD4680BC704779
:100F100000E100E080B483B000AF03463960FB71AC
:100F200097F90730002B0ADB3B68DAB20C4997F9D6
:100F300007301201D2B20B4483F800230AE03B6869
:100F4000DAB20849FB7903F00F03043B1201D2B275
:100F50000B441A7600BF0C37BD4680BC704700BFFB
:100F600000E100E000ED00E080B489B000AFF8607F
:100F7000B9607A60FB6803F00703FB61FB69C3F1AA
:100F80000703042B28BF0423BB61FB690433062B32
:100F900002D9FB69033B00E000237B614FF0FF3285
:100FA000BB6902FA03F3DA43BB681A407B699A40D3
:100FB0004FF0FF317B6901FA03F3D9437B680B40A3
:100FC000134318462437BD4680BC704780B582B0B5
:100FD00000AF78607868FFF74FFF00BF0837BD4665
:100FE00080BD80B586B000AF0346B9607A60FB7300
:100FF00000237B61FFF764FF78617A68B9687869DC
:10100000FFF7B2FF024697F90F3011461846FFF777
:1010100081FF00BF1837BD4680BD80B582B000AFEC
:101020000346FB7197F907301846FFF757FF00BFDB
:101030000837BD4680BD000080B48BB000AF78603B
:10104000396000237B6200233B6269E101227B6AF5
:1010500002FA03F3FB613B681B68FA691340BB614A
:10106000BA69FB699A4240F058813B685B689A4ACA
:1010700093425ED0984A934275D8984A934258D08A
:10108000964A93426FD8964A934252D0944A9342DA
:1010900069D8944A93424CD0924A934263D8924A78
:1010A000934246D0904A93425DD8122B2AD8122BF5
:1010B00059D801A252F823F0331100080D1100088D
:1010C0001F1100086111000867110008671100086E
:1010D0006711000867110008671100086711000810
:1010E0006711000867110008671100086711000800
:1010F0006711000867110008671100081511000842
:1011000029110008794A934213D02CE03B68DB6830
:101110003B6229E03B68DB6804333B6224E03B68C8
:10112000DB6808333B621FE03B68DB680C333B62E3
:101130001AE03B689B68002B02D104233B6213E05A
:101140003B689B68012B05D108233B627B68FA69E9
:101150001A6109E008233B627B68FA695A6103E07F
:1011600000233B6200E000BFBB69FF2B01D87B6816
:1011700001E07B6804337B61BB69FF2B02D87B6A8B
:101180009B0002E07B6A083B9B003B617B691A681D
:101190000F213B6901FA03F3DB431A40396A3B69CB
:1011A00001FA03F31A437B691A603B685B6803F03A
:1011B0008053002B00F0B1804D4B9B694C4A43F0AB
:1011C000010393614A4B9B6903F00103BB60BB6859
:1011D000484A7B6A9B08023352F82330FB607B6AE3
:1011E00003F003039B000F2202FA03F3DB43FA68C8
:1011F0001340FB607B68404A934213D07B683F4AB0
:1012000093420DD07B683E4A934207D07B683D4AAB
:10121000934201D1032306E0042304E0022302E009
:10122000012300E000237A6A02F003029200934057
:10123000FA681343FB602F497B6A9B080233FA6804
:1012400041F823203B685B6803F48033002B06D011
:101250002D4B1A682C49BB6913430B6006E02A4BDF
:101260001A68BB69DB43284913400B603B685B6825
:1012700003F40033002B06D0234B5A682249BB6984
:1012800013434B6006E0204B5A68BB69DB431E49A1
:1012900013404B603B685B6803F48013002B06D05F
:1012A000194B9A681849BB6913438B6006E0164BCB
:1012B0009A68BB69DB43144913408B603B685B68E9
:1012C00003F40013002B21D00F4BDA680E49BB69E1
:1012D0001343CB6021E000BF00003210000031104A
:1012E0000000221000002110000012100000111058
:1012F000001002400000014000080140000C0140C5
:101300000010014000140140000401400B4BDA685A
:10131000BB69DB4309491340CB607B6A01337B62C5
:101320003B681A687B6A22FA03F3002B7FF48EAEC7
:1013300000BF00BF2C37BD4680BC70470004014091
:1013400080B483B000AF78600B467B8013467B701F
:101350007B78002B03D07A887B681A6103E07B8856
:101360001A047B681A6100BF0C37BD4680BC704709
:1013700080B584B000AF78607B68002B01D1012379
:101380002BE17B6893F83D30DBB2002B06D17B6804
:10139000002283F83C207868FFF72CFA7B6824222F
:1013A00083F83D207B681B681A687B681B6822F005
:1013B00001021A607B681B681A687B681B6842F42C
:1013C00000421A607B681B681A687B681B6822F4FD
:1013D00000421A6000F0E4FCF8607B685B68814AB8
:1013E000934207D8FB68804A934294BF01230023AD
:1013F000DBB206E0FB687D4A934294BF01230023E1
:10140000DBB2002B01D00123E7E0FB68784AA2FBA6
:1014100003239B0CBB607B681B685B6823F03F0168
:101420007B681B68BA680A435A607B681B681B6A42
:1014300023F03F017B685B686A4A934202D8BB682D
:10144000013309E0BB684FF4967202FB03F3694A6B
:10145000A2FB03239B0901337A6812680B431362D2
:101460007B681B68DB6923F44F4222F0FF027B6834
:101470005B685C498B4219D8FB68591E7B685B68C6
:101480005B00B1FBF3F3591C40F6FC730B40002BDF
:101490000AD0FB68591E7B685B685B00B1FBF3F305
:1014A0000133C3F30B0351E004234FE07B689B68D7
:1014B000002B11D1FB68581E7B6859680B465B00F6
:1014C0000B44B0FBF3F30133C3F30B03002B0CBF4E
:1014D00001230023DBB212E0FB68581E7B685968C9
:1014E0000B469B000B4499000B44B0FBF3F3013314
:1014F000C3F30B03002B0CBF01230023DBB2002B33
:1015000001D0012322E07B689B68002B0ED1FB6891
:10151000581E7B6859680B465B000B44B0FBF3F325
:101520000133C3F30B0343F400430FE0FB68581E81
:101530007B6859680B469B000B4499000B44B0FB39
:10154000F3F30133C3F30B0343F4404379680968B1
:101550001343CB617B681B681B6823F0C0017B6869
:10156000DA697B681B6A1A437B681B680A431A6046
:101570007B681B689B6823F4034323F0FF037A68AE
:1015800011697A68D26811437A6812680B439360D4
:101590007B681B68DB6823F0FF017B685A697B6806
:1015A0009B691A437B681B680A43DA607B681B6887
:1015B0001A687B681B6842F001021A607B6800228F
:1015C0001A647B68202283F83D207B6800221A631E
:1015D0007B68002283F83E20002318461037BD4662
:1015E00080BD00BFA08601007F841E00FF083D0073
:1015F00083DE1B43D34D621080B586B000AF7860A8
:101600007B68002B01D1012372E27B681B6803F029
:101610000103002B00F08780924B5B6803F00C0302
:10162000042B0CD08F4B5B6803F00C03082B12D1FA
:101630008C4B5B6803F48033B3F5803F0BD1894B4F
:101640001B6803F40033002B6CD07B685B68002BB5
:1016500068D101234CE27B685B68B3F5803F06D11B
:10166000804B1B687F4A43F4803313602EE07B6815
:101670005B68002B0CD17B4B1B687A4A23F48033C8
:101680001360784B1B68774A23F4802313601DE0B6
:101690007B685B68B3F5A02F0CD1724B1B68714A55
:1016A00043F4802313606F4B1B686E4A43F480330E
:1016B00013600BE06B4B1B686A4A23F480331360A2
:1016C000684B1B68674A23F4802313607B685B6860
:1016D000002B13D0FFF7C6FB386108E0FFF7C2FB11
:1016E00002463B69D31A642B01D9032300E25D4B08
:1016F0001B6803F40033002BF0D014E0FFF7B2FBBB
:10170000386108E0FFF7AEFB02463B69D31A642B51
:1017100001D90323ECE1534B1B6803F40033002B86
:10172000F0D100E000BF7B681B6803F00203002BD0
:1017300063D04C4B5B6803F00C03002B0BD0494B80
:101740005B6803F00C03082B1CD1464B5B6803F469
:101750008033002B16D1434B1B6803F00203002B90
:1017600005D07B681B69012B01D00123C0E13D4BF3
:101770001B6823F0F8027B685B69DB00394913437F
:101780000B603AE07B681B69002B20D0364B0122AE
:101790001A60FFF767FB386108E0FFF763FB02465A
:1017A0003B69D31A022B01D90323A1E12D4B1B68FE
:1017B00003F00203002BF0D02A4B1B6823F0F80241
:1017C0007B685B69DB00274913430B6015E0264B00
:1017D00000221A60FFF746FB386108E0FFF742FB82
:1017E00002463B69D31A022B01D9032380E11D4B2A
:1017F0001B6803F00203002BF0D17B681B6803F029
:101800000803002B3AD07B689B69002B19D0174B3B
:1018100001221A60FFF726FB386108E0FFF722FB80
:1018200002463B69D31A022B01D9032360E10D4B19
:101830005B6A03F00203002BF0D0012000F008FBEC
:101840001CE00A4B00221A60FFF70CFB38610FE026
:10185000FFF708FB02463B69D31A022B08D9032382
:1018600046E100BF001002400000424280044242B4
:10187000924B5B6A03F00203002BE9D17B681B6883
:1018800003F00403002B00F0A6800023FB758B4BB4
:10189000DB6903F08053002B0DD1884BDB69874A4D
:1018A00043F08053D361854BDB6903F08053BB6009
:1018B000BB680123FB75824B1B6803F48073002B0C
:1018C00018D17F4B1B687E4A43F480731360FFF787
:1018D000C9FA386108E0FFF7C5FA02463B69D31A36
:1018E000642B01D9032303E1754B1B6803F4807358
:1018F000002BF0D07B68DB68012B06D16F4B1B6A95
:101900006E4A43F0010313622DE07B68DB68002B15
:101910000CD16A4B1B6A694A23F001031362674BBF
:101920001B6A664A23F0040313621CE07B68DB68D1
:10193000052B0CD1614B1B6A604A43F00403136210
:101940005E4B1B6A5D4A43F0010313620BE05B4B85
:101950001B6A5A4A23F001031362584B1B6A574A09
:1019600023F0040313627B68DB68002B15D0FFF7BC
:1019700079FA38610AE0FFF775FA02463B69D31A33
:1019800041F28832934201D90323B1E04B4B1B6AE9
:1019900003F00203002BEED014E0FFF763FA386186
:1019A0000AE0FFF75FFA02463B69D31A41F2883238
:1019B000934201D903239BE0404B1B6A03F00203CF
:1019C000002BEED1FB7D012B05D13C4BDB693B4A63
:1019D00023F08053D3617B68DB69002B00F08780A4
:1019E000364B5B6803F00C03082B61D07B68DB6926
:1019F000022B46D1334B00221A60FFF733FA3861CD
:101A000008E0FFF72FFA02463B69D31A022B01D9EF
:101A100003236DE0294B1B6803F00073002BF0D10A
:101A20007B681B6AB3F5803F08D1244B5B6823F4C5
:101A300000327B689B68214913434B601F4B5B68F6
:101A400023F474127B68196A7B685B6A0B431B4939
:101A500013434B601B4B01221A60FFF703FA3861F6
:101A600008E0FFF7FFF902463B69D31A022B01D9C0
:101A700003233DE0114B1B6803F00073002BF0D0F3
:101A800035E0104B00221A60FFF7ECF9386108E0EE
:101A9000FFF7E8F902463B69D31A022B01D9032369
:101AA00026E0064B1B6803F00073002BF0D11EE00C
:101AB0007B68DB69012B07D1012319E0001002408C
:101AC00000700040600042420B4B5B68FB60FB68AB
:101AD00003F480327B681B6A9A4206D1FB6803F4E8
:101AE00070127B685B6A9A4201D0012300E00023F8
:101AF00018461837BD4680BD0010024080B584B03E
:101B000000AF786039607B68002B01D10123D0E001
:101B10006A4B1B6803F007033A689A4210D9674B77
:101B20001B6823F0070265493B6813430B60634B56
:101B30001B6803F007033A689A4201D00123B8E01A
:101B40007B681B6803F00203002B20D07B681B68B6
:101B500003F00403002B05D0594B5B68584A43F44B
:101B6000E06353607B681B6803F00803002B05D01B
:101B7000534B5B68524A43F460535360504B5B686D
:101B800023F0F0027B689B684D4913434B607B68F0
:101B90001B6803F00103002B40D07B685B68012BBE
:101BA00007D1474B1B6803F40033002B15D10123E9
:101BB0007FE07B685B68022B07D1414B1B6803F019
:101BC0000073002B09D1012373E03D4B1B6803F028
:101BD0000203002B01D101236BE0394B5B6823F03A
:101BE00003027B685B68364913434B60FFF73AF9A1
:101BF000F8600AE0FFF736F90246FB68D31A41F2B3
:101C00008832934201D9032353E02D4B5B6803F0E4
:101C10000C027B685B689B009A42EBD1274B1B68E8
:101C200003F007033A689A4210D2244B1B6823F052
:101C3000070222493B6813430B60204B1B6803F0EB
:101C400007033A689A4201D0012332E07B681B689F
:101C500003F00403002B08D0194B5B6823F4E06207
:101C60007B68DB68164913434B607B681B6803F095
:101C70000803002B09D0124B5B6823F460527B6889
:101C80001B69DB000E4913434B6000F021F802464C
:101C90000B4B5B681B0903F00F030A49CB5C22FA6C
:101CA00003F3094A1360094B1B681846FEF77EFFD1
:101CB000002318461037BD4680BD00BF00200240FB
:101CC000001002402C550008180000201C000020C5
:101CD00090B48AB000AF294B3C1D0FCB84E80F00B5
:101CE00040F201233B800023FB610023BB61002302
:101CF0007B6200237B6100233B62214B5B68FB61BD
:101D0000FB6903F00C03042B02D0082B03D02BE05B
:101D10001C4B3B622BE0FB699B0C03F00F03283349
:101D20003B4413F8243C7B61FB6903F48033002BB4
:101D300012D0134B5B685B0C03F0010328333B4468
:101D400013F8283CBB617B690E4A03FB02F2BB69B6
:101D5000B2FBF3F37B6204E07B690B4A02FB03F303
:101D60007B627B6A3B6202E0064B3B6200BF3B6AE0
:101D700018462837BD4690BC704700BFBC540008C9
:101D80000010024000127A0000093D0080B400AF4C
:101D9000024B1B681846BD4680BC704718000020E7
:101DA00080B500AFFFF7F2FF0246054B5B681B0AE8
:101DB00003F007030349CB5C22FA03F3184680BD06
:101DC000001002403C55000880B500AFFFF7DEFF71
:101DD0000246054B5B68DB0A03F007030349CB5C53
:101DE00022FA03F3184680BD001002403C5500085B
:101DF00080B483B000AF786039607B680F221A60CE
:101E0000114B5B6803F003027B685A600E4B5B6802
:101E100003F0F0027B689A600B4B5B6803F4E062AE
:101E20007B68DA60084B5B68DB0803F4E0627B6880
:101E30001A61064B1B6803F007023B681A6000BF7B
:101E40000C37BD4680BC70470010024000200240A5
:101E500080B485B000AF78600A4B1B680A4AA2FBC9
:101E600003235B0A7A6802FB03F3FB6000BFFB6895
:101E70005A1EFA60002BF9D100BF00BF1437BD46CF
:101E800080BC704718000020D34D621080B582B02E
:101E900000AF78607B68002B01D1012376E07B687E
:101EA0005B6A002B08D17B685B68B3F5827F09D041
:101EB0007B680022DA6105E07B6800221A617B689A
:101EC00000225A617B6800229A627B6893F8513045
:101ED000DBB2002B06D17B68002283F850207868A3
:101EE000FEF7A6FD7B68022283F851207B681B6801
:101EF0001A687B681B6822F040021A607B685B6886
:101F000003F482727B689B6803F404431A437B6882
:101F1000DB6803F400631A437B681B6903F0020368
:101F20001A437B685B6903F001031A437B689B6972
:101F300003F400731A437B68DB6903F038031A4328
:101F40007B681B6A03F0800342EA03017B689B6A9B
:101F500003F400527B681B680A431A607B689B6924
:101F60001A0C7B681B6802F004025A607B681B68CD
:101F7000DA697B681B6822F40062DA617B68002200
:101F80005A657B68012283F85120002318460837E0
:101F9000BD4680BD80B582B000AF78607B68002B05
:101FA00001D1012341E07B6893F83D30DBB2002B87
:101FB00006D17B68002283F83C20786800F039F86D
:101FC0007B68022283F83D207B681A687B680433B3
:101FD0001946104600F0B4F97B68012283F84620C8
:101FE0007B68012283F83E207B68012283F83F2032
:101FF0007B68012283F840207B68012283F841201E
:102000007B68012283F842207B68012283F8432009
:102010007B68012283F844207B68012283F84520F5
:102020007B68012283F83D20002318460837BD460F
:1020300080BD80B483B000AF786000BF0C37BD4670
:1020400080BC704780B485B000AF78607B6893F83F
:102050003D30DBB2012B01D001233AE07B68022244
:1020600083F83D207B681B68DA687B681B6842F058
:102070000102DA607B681B68184A93420ED07B68C5
:102080001B68B3F1804F09D07B681B68144A9342E8
:1020900004D07B681B68134A934211D17B681B688C
:1020A0009B6803F00703FB60FB68062B10D07B687E
:1020B0001B681A687B681B6842F001021A6007E01F
:1020C0007B681B681A687B681B6842F001021A6013
:1020D000002318461437BD4680BC7047002C0140D1
:1020E000000400400008004080B582B000AF786076
:1020F0007B681B681B6903F00203022B22D17B68FB
:102100001B68DB6803F00203022B1BD17B681B6892
:102110006FF002021A617B6801221A777B681B68E4
:102120009B6903F00303002B03D0786800F0EDF8FF
:1021300005E0786800F0E0F8786800F0EFF87B6878
:1021400000221A777B681B681B6903F00403042BC9
:1021500022D17B681B68DB6803F00403042B1BD1CE
:102160007B681B686FF004021A617B6802221A7791
:102170007B681B689B6903F44073002B03D078686D
:1021800000F0C3F805E0786800F0B6F8786800F071
:10219000C5F87B6800221A777B681B681B6903F00F
:1021A0000803082B22D17B681B68DB6803F0080357
:1021B000082B1BD17B681B686FF008021A617B68D3
:1021C00004221A777B681B68DB6903F00303002B8A
:1021D00003D0786800F099F805E0786800F08CF892
:1021E000786800F09BF87B6800221A777B681B6890
:1021F0001B6903F01003102B22D17B681B68DB687E
:1022000003F01003102B1BD17B681B686FF01002CA
:102210001A617B6808221A777B681B68DB6903F404
:102220004073002B03D0786800F06FF805E0786801
:1022300000F062F8786800F071F87B6800221A7785
:102240007B681B681B6903F00103012B0ED17B68BF
:102250001B68DB6803F00103012B07D17B681B6857
:102260006FF001021A617868FEF75EFB7B681B68FD
:102270001B6903F08003802B0ED17B681B68DB6831
:1022800003F08003802B07D17B681B686FF080020E
:102290001A61786800F0BFF87B681B681B6903F05F
:1022A0004003402B0ED17B681B68DB6803F04003C2
:1022B000402B07D17B681B686FF040021A61786879
:1022C00000F035F87B681B681B6903F02003202BA6
:1022D0000ED17B681B68DB6803F02003202B07D13D
:1022E0007B681B686FF020021A61786800F08AF83A
:1022F00000BF0837BD4680BD80B483B000AF7860B2
:1023000000BF0C37BD4680BC704780B483B000AFBF
:10231000786000BF0C37BD4680BC704780B483B086
:1023200000AF786000BF0C37BD4680BC704780B4FA
:1023300083B000AF786000BF0C37BD4680BC7047EB
:1023400080B485B000AF786039607B681B68FB6043
:102350007B68294A93420BD07B68B3F1804F07D04A
:102360007B68264A934203D07B68254A934208D172
:10237000FB6823F07003FB603B685B68FA681343FB
:10238000FB607B681C4A93420BD07B68B3F1804FA3
:1023900007D07B68194A934203D07B68184A93425E
:1023A00008D1FB6823F44073FB603B68DB68FA6884
:1023B0001343FB60FB6823F080023B685B691343B7
:1023C000FB607B68FA681A603B689A687B68DA622F
:1023D0003B681A687B689A627B68074A934203D11C
:1023E0003B681A697B681A637B6801225A6100BFE7
:1023F0001437BD4680BC7047002C014000040040EB
:102400000008004080B483B000AF786000BF0C3794
:10241000BD4680BC704780B483B000AF786000BF19
:102420000C37BD4680BC704780B582B000AF786085
:102430007B68002B01D101233FE07B6893F83D309E
:10244000DBB2002B06D17B68002283F83C20786841
:10245000FEF76EFC7B68242283F83D207B681B68B6
:10246000DA687B681B6822F40052DA60786800F052
:1024700005F97B681B681A697B681B6822F4904227
:102480001A617B681B685A697B681B6822F02A0204
:102490005A617B681B68DA687B681B6842F40052EB
:1024A000DA607B6800221A647B68202283F83D2072
:1024B0007B68202283F83E20002318460837BD465B
:1024C00080BD80B58AB002AFF860B9603B6013464A
:1024D000FB8000237B61FB6893F83D30DBB2202B4F
:1024E0007CD1BB68002B02D0FB88002B01D10123DB
:1024F00075E0FB6893F83C30012B01D102236EE0BC
:10250000FB68012283F83C20FB6800221A64FB6808
:10251000212283F83D20FEF7A5FC7861FB68FA884C
:102520009A84FB68FA88DA84FB689B68B3F5805F5D
:1025300008D1FB681B69002B04D10023FB61BB6839
:10254000BB6103E0BB68FB610023BB61FB68002249
:1025500083F83C202AE03B6800937B6900228021BD
:10256000F86800F040F80346002B01D0032336E062
:10257000FB69002B0BD1BB691B881A46FB681B68E3
:10258000C2F308025A60BB690233BB6107E0FB6912
:102590001A78FB681B685A60FB690133FB61FB68B2
:1025A000DB8C9BB2013B9AB2FB68DA84FB68DB8C64
:1025B0009BB2002BCFD13B6800937B690022402166
:1025C000F86800F010F80346002B01D0032306E062
:1025D000FB68202283F83D20002300E002231846F8
:1025E0002037BD4680BD80B584B000AFF860B960CB
:1025F0003B601346FB712CE0BB69B3F1FF3F28D071
:10260000BB69002B07D0FEF72DFC02463B68D31AAE
:10261000BA699A421DD2FB681B68DA68FB681B68BE
:1026200022F4D072DA60FB681B685A69FB681B6889
:1026300022F001025A61FB68202283F83D20FB68EA
:10264000202283F83E20FB68002283F83C200323ED
:102650000FE0FB681B681A68BB681340BA689A42AF
:102660000CBF01230023DBB21A46FB799A42C3D088
:10267000002318461037BD4680BD000080B584B0E9
:1026800000AF78607B681B681B6923F440517B684E
:10269000DA687B681B680A431A617B689A687B6802
:1026A0001B691A437B685B691343BB607B681B68CB
:1026B000DB6823F4B05323F00C037A681268B9681E
:1026C0000B43D3607B681B685B6923F440717B68B4
:1026D0009A697B681B680A435A617B681B682C4AAD
:1026E000934203D1FFF770FBF86002E0FFF758FB5D
:1026F000F860FA6813469B0013449A001A447B68FA
:102700005B689B00B2FBF3F3224AA2FB03235B0945
:102710001901FA6813469B0013449A001A447B6817
:102720005B689B00B2FBF3F21A4BA3FB02035B094D
:10273000642000FB03F3D31A1B013233154AA2FBBA
:1027400003235B0903F0F0031944FA6813469B0066
:1027500013449A001A447B685B689B00B2FBF3F257
:102760000C4BA3FB02035B09642000FB03F3D31AA9
:102770001B013233074AA2FB03235B0903F00F025C
:102780007B681B680A449A6000BF1037BD4680BD55
:10279000003801401F85EB5180B485B000AFEFF3E6
:1027A0000583BB60BB68002B0FD1EFF310837B6008
:1027B0007B68002B09D1104B1B68022B09D1EFF36A
:1027C00011833B603B68002B03D06FF00503FB6077
:1027D0000CE0094B1B68002B05D1074B01221A6046
:1027E0000023FB6002E04FF0FF33FB60FB681846FC
:1027F0001437BD4680BC70475C02002080B584B0B1
:1028000000AFEFF30583BB60BB68002B0FD1EFF384
:1028100010837B607B68002B09D1114B1B68022B56
:1028200009D1EFF311833B603B68002B03D06FF0BD
:102830000503FB600EE00A4B1B68012B07D1084B18
:1028400002221A6001F00EF90023FB6002E04FF053
:10285000FF33FB60FB6818461037BD4680BD00BFE4
:102860005C02002080B592B004AFF860B9607A6075
:1028700000237B61EFF305837B627B6A002B40F0D2
:102880009480EFF310833B623B6A002B40F08D8015
:10289000484B1B68022B06D1EFF31183FB61FB69E8
:1028A000002B40F08280FB68002B7ED080233B63AE
:1028B0001823FB620023FB7607F11B037B634FF0B9
:1028C000FF33BB627B68002B45D07B681B68002B05
:1028D00002D07B681B687B637B689B69002B02D0FE
:1028E0007B689B69FB62FB6A002B08D0FB6A382B74
:1028F00005D87B685B6803F00103002B01D000233F
:1029000054E07B685B69002B03D07B685B699B08A4
:102910003B637B689B68002B0ED07B68DB68BB2B1E
:102920000AD97B681B69002B06D07B685B69002B8A
:1029300002D00123BB6210E07B689B68002B0CD1A6
:102940007B68DB68002B08D17B681B69002B04D1F6
:102950000023BB6201E00023BB62BB6A012B10D1E4
:102960007B681B697A68926802920193FB6A009304
:10297000BB683A6B796BF86800F012FE03467B6126
:1029800013E0BB6A002B10D13B6B9AB207F1140322
:102990000193FB6A0093BB68796BF86800F05CFEFA
:1029A0000346012B01D000237B617B691846383731
:1029B000BD4680BD5C02002080B586B000AF786067
:1029C000EFF305833B613B69002B0FD1EFF31083DD
:1029D000FB60FB68002B09D10D4B1B68022B09D152
:1029E000EFF31183BB60BB68002B03D06FF00503CE
:1029F0007B6107E000237B617B68002B02D0786855
:102A000000F0FCFF7B6918461837BD4680BD00BF4B
:102A10005C02002080B485B000AFF860B9607A60D5
:102A2000FB68064A1A60BB68054A1A607B68802208
:102A30001A6000BF1437BD4680BC7047600200209A
:102A40001C03002080B485B000AFF860B9607A60E4
:102A5000FB68074A1A60BB68064A1A607B684FF435
:102A600080721A6000BF1437BD4680BC704700BF3B
:102A70001C050020D805002080B483B000AF78602A
:102A80007B6803F108027B685A607B684FF0FF3275
:102A90009A607B6803F108027B68DA607B6803F167
:102AA00008027B681A617B6800221A6000BF0C373D
:102AB000BD4680BC704780B483B000AF78607B684F
:102AC00000221A6100BF0C37BD4680BC704780B43D
:102AD00085B000AF786039607B685B68FB603B68FD
:102AE000FA685A60FB689A683B689A60FB689B6862
:102AF0003A685A60FB683A689A603B687A681A617B
:102B00007B681B685A1C7B681A6000BF1437BD467F
:102B100080BC704780B485B000AF786039603B6896
:102B20001B68BB60BB68B3F1FF3F03D17B681B69C7
:102B3000FB600CE07B680833FB6002E0FB685B68CD
:102B4000FB60FB685B681B68BA689A42F6D2FB6858
:102B50005A683B685A603B685B683A689A603B68B1
:102B6000FA689A60FB683A685A603B687A681A614A
:102B70007B681B685A1C7B681A6000BF1437BD460F
:102B800080BC704780B485B000AF78607B681B69FB
:102B9000FB607B685B687A6892689A607B689B6878
:102BA0007A6852685A60FB685B687A689A4203D117
:102BB0007B689A68FB685A607B6800221A61FB6830
:102BC0001B685A1EFB681A60FB681B68184614379E
:102BD000BD4680BC7047000080B584B000AF78600F
:102BE00039607B68FB60FB68002B0AD14FF0500313
:102BF00083F31188BFF36F8FBFF34F8FBB6000BFAC
:102C0000FEE702F073F8FB681A68FB68DB6BF96893
:102C1000096C01FB03F31A44FB685A60FB6800224D
:102C20009A63FB681A68FB689A60FB681A68FB681D
:102C3000DB6B013BF968096C01FB03F31A44FB6889
:102C4000DA60FB68FF2283F84420FB68FF2283F8E8
:102C500045203B68002B14D1FB681B69002B1AD060
:102C6000FB681033184601F099F90346002B12D087
:102C70000C4B4FF080521A60BFF34F8FBFF36F8F32
:102C800009E0FB6810331846FFF7F6FEFB682433B3
:102C90001846FFF7F1FE02F059F8012318461037E5
:102CA000BD4680BD04ED00E080B58EB002AFF86097
:102CB000B9607A603B60FB68002B0AD14FF050038B
:102CC00083F31188BFF36F8FBFF34F8FBB6200BFD9
:102CD000FEE73B68002B0AD14FF0500383F31188C5
:102CE000BFF36F8FBFF34F8F7B6200BFFEE77B6840
:102CF000002B02D0BB68002B01D0012300E0002391
:102D0000002B0AD14FF0500383F31188BFF36F8F6C
:102D1000BFF34F8F3B6200BFFEE77B68002B02D101
:102D2000BB68002B01D1012300E00023002B0AD156
:102D30004FF0500383F31188BFF36F8FBFF34F8FB2
:102D4000FB6100BFFEE750237B617B69502B0AD0FB
:102D50004FF0500383F31188BFF36F8FBFF34F8F92
:102D6000BB6100BFFEE73B68FB62FB6A002B0DD036
:102D7000FB6A012283F8462097F83820FB6A00930B
:102D800013467A68B968F86800F005F8FB6A1846D7
:102D90003037BD4680BD80B584B000AFF860B96003
:102DA0007A60FB70BB68002B03D1BB69BA691A60FB
:102DB00002E0BB697A681A60BB69FA68DA63BB69CA
:102DC000BA681A640121B869FFF706FFBB69FA788F
:102DD00083F84C2000BF1037BD4680BD80B58EB053
:102DE00000AFF860B9607A603B6000237B63FB68EA
:102DF0003B633B6B002B0AD14FF0500383F31188E8
:102E0000BFF36F8FBFF34F8FBB6200BFFEE7BB689E
:102E1000002B03D13B6B1B6C002B01D1012300E085
:102E20000023002B0AD14FF0500383F31188BFF326
:102E30006F8FBFF34F8F7B6200BFFEE73B68022BB3
:102E400003D13B6BDB6B012B01D1012300E000239D
:102E5000002B0AD14FF0500383F31188BFF36F8F1B
:102E6000BFF34F8F3B6200BFFEE701F05DFA034600
:102E7000002B02D17B68002B01D1012300E000234D
:102E8000002B0AD14FF0500383F31188BFF36F8FEB
:102E9000BFF34F8FFB6100BFFEE701F027FF3B6BE5
:102EA0009A6B3B6BDB6B9A4202D33B68022B29D1B6
:102EB0003A68B968386B00F007FAF8623B6B5B6AF6
:102EC000002B10D03B6B2433184601F067F8034603
:102ED000002B13D03F4B4FF080521A60BFF34F8F3F
:102EE000BFF36F8F0AE0FB6A002B07D0394B4FF01E
:102EF00080521A60BFF34F8FBFF36F8F01F026FF30
:102F0000012363E07B68002B03D101F01FFF002346
:102F10005CE07B6B002B06D107F11403184601F02F
:102F2000A1F801237B6301F011FF00F00BFE01F01B
:102F3000DDFE3B6B93F844305BB2B3F1FF3F03D14E
:102F40003B6B002283F844203B6B93F845305BB227
:102F5000B3F1FF3F03D13B6B002283F8452001F022
:102F6000F5FE3A1D07F114031146184601F090F8DA
:102F70000346002B24D1386B00F09EFA0346002B49
:102F800018D03B6B10337A681146184600F0B6FF34
:102F9000386B00F029FA00F0E3FD0346002B7FF4C4
:102FA0007CAF0C4B4FF080521A60BFF34F8FBFF3D2
:102FB0006F8F72E7386B00F017FA00F0D1FD6CE705
:102FC000386B00F011FA00F0CBFD002318463837BB
:102FD000BD4680BD04ED00E080B58EB000AFF86066
:102FE000B9607A603B60FB683B633B6B002B0AD1A6
:102FF0004FF0500383F31188BFF36F8FBFF34F8FF0
:103000007B6200BFFEE7BB68002B03D13B6B1B6CF0
:10301000002B01D1012300E00023002B0AD14FF047
:10302000500383F31188BFF36F8FBFF34F8F3B6261
:1030300000BFFEE73B68022B03D13B6BDB6B012B30
:1030400001D1012300E00023002B0AD14FF05003EF
:1030500083F31188BFF36F8FBFF34F8FFB6100BF06
:10306000FEE701F005FFEFF311824FF0500383F309
:103070001188BFF36F8FBFF34F8FBA617B61BB695C
:10308000FB623B6B9A6B3B6BDB6B9A4202D33B68F8
:10309000022B2CD13B6B93F8453087F82B303A68E4
:1030A000B968386B00F010F997F92B30B3F1FF3F96
:1030B00012D13B6B5B6A002B16D03B6B2433184656
:1030C00000F06CFF0346002B0ED07B68002B0BD06A
:1030D0007B6801221A6007E097F82B300133DBB2DE
:1030E0005AB23B6B83F8452001237B6301E0002348
:1030F0007B63FB6A3B613B6983F3118800BF7B6B99
:1031000018463837BD4680BD80B58CB000AFF8603A
:10311000B9607A600023FB62FB68BB62BB6A002B6C
:103120000AD14FF0500383F31188BFF36F8FBFF3C1
:103130004F8F3B6200BFFEE7BB68002B03D1BB6A29
:103140001B6C002B01D1012300E00023002B0AD1CE
:103150004FF0500383F31188BFF36F8FBFF34F8F8E
:10316000FB6100BFFEE701F0DFF80346002B02D150
:103170007B68002B01D1012300E00023002B0AD142
:103180004FF0500383F31188BFF36F8FBFF34F8F5E
:10319000BB6100BFFEE701F0A9FDBB6A9B6B7B62D0
:1031A0007B6A002B1FD0B968B86A00F0F7F87B6A19
:1031B0005A1EBB6A9A63BB6A1B69002B0FD0BB6A9D
:1031C0001033184600F0EAFE0346002B07D03D4BB3
:1031D0004FF080521A60BFF34F8FBFF36F8F01F033
:1031E000B5FD012369E07B68002B03D101F0AEFD42
:1031F000002362E0FB6A002B06D107F1100318469A
:1032000000F030FF0123FB6201F0A0FD00F09AFC0A
:1032100001F06CFDBB6A93F844305BB2B3F1FF3F41
:1032200003D1BB6A002283F84420BB6A93F845307F
:103230005BB2B3F1FF3F03D1BB6A002283F84520A4
:1032400001F084FD3A1D07F110031146184600F005
:103250001FFF0346002B23D1B86A00F017F903467D
:10326000002B17D0BB6A24337A681146184600F049
:1032700045FEB86A00F0B8F800F072FC0346002B77
:1032800089D1104B4FF080521A60BFF34F8FBFF3BC
:103290006F8F80E7B86A00F0A7F800F061FC7AE76A
:1032A000B86A00F0A1F800F05BFCB86A00F0EEF834
:1032B0000346002B3FF46FAF002318463037BD465E
:1032C00080BD00BF04ED00E080B586B000AFF860BF
:1032D000B9607A6000237B61FB689B6B3B61FB6894
:1032E0001B6C002B0DD1FB681B68002B4DD1FB68BC
:1032F0005B68184601F036F87861FB6800225A6076
:1033000043E07B68002B19D1FB689868FB681B6C55
:103310001A46B96801F0E8FFFB689A68FB681B6C05
:103320001A44FB689A60FB689A68FB685B689A427B
:103330002BD3FB681A68FB689A6026E0FB68D868A4
:10334000FB681B6C1A46B96801F0CEFFFB68DA68AF
:10335000FB681B6C5B421A44FB68DA60FB68DA6846
:10336000FB681B689A4207D2FB685A68FB681B6CB3
:103370005B421A44FB68DA607B68022B05D13B692B
:10338000002B02D03B69013B3B613B695A1CFB6847
:103390009A637B6918461837BD4680BD80B582B0F8
:1033A00000AF786039607B681B6C002B18D07B689D
:1033B000DA687B681B6C1A447B68DA607B68DA68C1
:1033C0007B685B689A4203D37B681A687B68DA6023
:1033D0007B68D9687B681B6C1A46386801F084FFEB
:1033E00000BF0837BD4680BD80B584B000AF7860AF
:1033F00001F07CFC7B6893F84530FB7311E07B683F
:103400005B6A002B12D07B682433184600F0C6FD9F
:103410000346002B01D000F09DFEFB7B013BDBB29D
:10342000FB7397F90F30002BE9DC00E000BF7B68ED
:10343000FF2283F8452001F089FC01F057FC7B68EE
:1034400093F84430BB7311E07B681B69002B12D0EA
:103450007B681033184600F0A1FD0346002B01D015
:1034600000F078FEBB7B013BDBB2BB7397F90E30FB
:10347000002BE9DC00E000BF7B68FF2283F84420DA
:1034800001F064FC00BF1037BD4680BD80B584B03C
:1034900000AF786001F02AFC7B689B6B002B02D1A7
:1034A0000123FB6001E00023FB6001F04FFCFB689F
:1034B00018461037BD4680BD80B584B000AF786037
:1034C00001F014FC7B689A6B7B68DB6B9A4202D13B
:1034D0000123FB6001E00023FB6001F037FCFB6887
:1034E00018461037BD4680BD80B485B000AF786007
:1034F00039600023FB6014E00E4AFB6852F8333059
:10350000002B0BD10B49FB683A6841F83320094A7C
:10351000FB68DB0013447A685A6006E0FB680133FD
:10352000FB60FB68072BE7D900BF00BF1437BD461F
:1035300080BC7047D809002080B586B000AFF86025
:10354000B9607A60FB687B6101F0D0FB7B6993F81E
:1035500044305BB2B3F1FF3F03D17B69002283F8B3
:1035600044207B6993F845305BB2B3F1FF3F03D150
:103570007B69002283F8452001F0E8FB7B699B6BA7
:10358000002B06D17B6924337A68B968184600F0AD
:10359000D9FC7869FFF728FF00BF1837BD4680BD0A
:1035A00080B58EB004AFF860B9607A603B607B6B29
:1035B000002B0AD14FF0500383F31188BFF36F8FB4
:1035C000BFF34F8F3B6200BFFEE7BB6B002B0AD1FE
:1035D0004FF0500383F31188BFF36F8FBFF34F8F0A
:1035E000FB6100BFFEE7BC233B613B69BC2B0AD0FB
:1035F0004FF0500383F31188BFF36F8FBFF34F8FEA
:10360000BB6100BFFEE7BB6B002B1ED07B6B002BAA
:103610001BD0BB6B7B627B6A7A6B1A637B6A02226C
:1036200083F8B920002303937B6A029307F1140304
:1036300001933B6B00933B687A68B968F86800F0C7
:1036400051F8786A00F0ECF801E000237B617B69B7
:1036500018462837BD4680BD80B58CB004AFF860F1
:10366000B9603B601346FB80FB889B00184601F065
:103670003DFC78617B69002B0ED0BC2001F036FC4C
:10368000F861FB69002B03D0FB697A691A6305E0D6
:10369000786901F0EFFC01E00023FB61FB69002B7E
:1036A00017D0FB69002283F8B920FA88002303931E
:1036B000FB690293FB6A0193BB6A00933B68B9689C
:1036C000F86800F00FF8F86900F0AAF80123BB6170
:1036D00002E04FF0FF33BB61BB6918462037BD469F
:1036E00080BD000080B588B000AFF860B9607A6036
:1036F0003B603B6B186B7B689B001A46A52101F071
:1037000001FE3B6B1A6B7B6803F18043013B9B001E
:103710001344BB61BB6923F00703BB61BB6903F0C2
:103720000703002B0AD04FF0500383F31188BFF337
:103730006F8FBFF34F8F7B6100BFFEE70023FB61FC
:1037400012E0BA68FB69134419783A6BFB691344B9
:1037500034330A461A70BA68FB6913441B78002B8D
:1037600006D0FB690133FB61FB690F2BE9D900E04F
:1037700000BF3B6B002283F84320BB6A372B01D983
:103780003723BB623B6BBA6ADA623B6BBA6ADA64B4
:103790003B6B00221A653B6B04331846FFF78BF92D
:1037A0003B6B18331846FFF786F93B6B3A6B1A618F
:1037B000BB6AC3F138023B6B9A613B6B3A6B5A624E
:1037C0003B6B0022C3F8B4203B6B002283F8B82087
:1037D0003B6B543360220021184601F093FD3B6B94
:1037E0000C4A9A653B6B0C4ADA653B6B0B4A1A66CE
:1037F0003A68F968B86901F089F902463B6B1A60CA
:10380000FB6A002B02D0FB6A3A6B1A6000BF2037BC
:10381000BD4680BD64550008845500084455000825
:1038200080B582B000AF786001F060FA2D4B1B6864
:1038300001332C4A13602C4B1B68002B09D12A4AF8
:103840007B681360274B1B68012B10D100F0A6FC8E
:103850000DE0264B1B68002B09D1234B1B68DA6A4D
:103860007B68DB6A9A4202D81F4A7B681360204B50
:103870001B6801331E4A13601D4B1A687B685A642B
:103880007B68DA6A1B4B1B689A4203D97B68DB6A48
:10389000184A13607B68DA6A13469B0013449B0046
:1038A000154A1A447B68043319461046FFF70FF98E
:1038B00001F04CFA0D4B1B68002B0ED00A4B1B6815
:1038C000DA6A7B68DB6A9A4207D20C4B4FF080526F
:1038D0001A60BFF34F8FBFF36F8F00BF0837BD462D
:1038E00080BD00BFEC0E0020180A0020F80E00205A
:1038F000080F0020F40E00201C0A002004ED00E058
:1039000080B58AB000AF7860396000237B627B6845
:10391000002B0AD14FF0500383F31188BFF36F8F50
:10392000BFF34F8F7B6100BFFEE73B68002B0AD1DE
:103930004FF0500383F31188BFF36F8FBFF34F8FA6
:103940003B6100BFFEE72A4B1B68002B0AD04FF0FB
:10395000500383F31188BFF36F8FBFF34F8FFB606A
:1039600000BFFEE700F0EEF8224B1B683B627B686D
:103970001B683A681344FB617B681B683A6A9A4289
:103980000BD27B681B68FA699A4211D2FA693B6ACA
:103990009A420DD901237B620AE07B681B68FA69B1
:1039A0009A4203D3FA693B6A9A4201D901237B62A6
:1039B0007B68FA691A607B6A002B06D0FA693B6A59
:1039C000D31A0021184600F03BFD00F0C9F8B86199
:1039D000BB69002B07D1084B4FF080521A60BFF330
:1039E0004F8FBFF36F8F00BF2837BD4680BD00BF2C
:1039F000140F0020F00E002004ED00E080B584B02C
:103A000000AF78600023FB607B68002B17D0134B5E
:103A10001B68002B0AD04FF0500383F31188BFF3CB
:103A20006F8FBFF34F8FBB6000BFFEE700F08AF8D7
:103A30000021786800F004FD00F092F8F860FB685F
:103A4000002B07D1064B4FF080521A60BFF34F8F07
:103A5000BFF36F8F00BF1037BD4680BD140F00202D
:103A600004ED00E080B58AB004AF0023BB60002302
:103A70007B603A46391D07F108031846FEF7CAFF76
:103A800039687B68BA68029201930023009300238F
:103A90000A4624492448FFF783FD0346234A13605E
:103AA000224B1B68002B02D001237B6101E0002325
:103AB0007B617B69012B02D100F016FD78617B6987
:103AC000012B1BD14FF0500383F31188BFF36F8F8D
:103AD000BFF34F8F3B6100BF154B1B685433154A32
:103AE0001360154B4FF0FF321A60144B01221A601D
:103AF000134B00221A6001F087F80EE07B69B3F1E6
:103B0000FF3F0AD14FF0500383F31188BFF36F8F4B
:103B1000BFF34F8FFB6000BFFEE700BF1837BD4605
:103B200080BD00BFCC5400086D410008100F00207C
:103B3000180A0020280000200C0F0020F80E00209A
:103B4000F00E002080B400AF044B1B680133034A21
:103B5000136000BFBD4680BC704700BF140F00203B
:103B600080B584B000AF0023FB600023BB60424BF4
:103B70001B68002B0AD14FF0500383F31188BFF369
:103B80006F8FBFF34F8F3B6000BFFEE701F0AEF8D1
:103B9000394B1B68013B384A1360374B1B68002BBD
:103BA00062D1364B1B68002B5ED02FE0344BDB68B4
:103BB000DB68FB60FB6818331846FEF7E3FFFB6821
:103BC00004331846FEF7DEFFFB68DA6A2D4B1B68EC
:103BD0009A4203D9FB68DB6A2A4A1360FB68DA6AF7
:103BE00013469B0013449B00274A1A44FB68043386
:103BF00019461046FEF76BFFFB68DA6A234B1B6819
:103C0000DB6A9A4202D3224B01221A601C4B1B68CA
:103C1000002BCBD1FB68002B01D000F061FB1D4BCA
:103C20001B687B607B68002B10D000F045F80346D2
:103C3000002B02D0164B01221A607B68013B7B608F
:103C40007B68002BF1D1134B00221A60104B1B68CC
:103C5000002B09D00123BB600F4B4FF080521A603C
:103C6000BFF34F8FBFF36F8F01F070F8BB6818463A
:103C70001037BD4680BD00BF140F0020EC0E0020A1
:103C8000AC0E0020F40E00201C0A0020180A0020B0
:103C9000000F0020FC0E002004ED00E080B483B093
:103CA00000AF044B1B687B607B6818460C37BD4631
:103CB00080BC7047F00E002080B586B000AF0023B6
:103CC0007B61514B1B68002B40F08E804F4B1B6873
:103CD00001333B614D4A3B6913603B69002B20D1A6
:103CE0004B4B1B681B68002B0AD04FF0500383F32B
:103CF0001188BFF36F8FBFF34F8F3B6000BFFEE7AC
:103D0000434B1B68FB60434B1B68414A1360414AAD
:103D1000FB681360404B1B6801333F4A136000F09F
:103D2000DFFA3E4B1B683A699A424ED3384B1B6808
:103D30001B68002B01D1012300E00023002B04D0DD
:103D4000364B4FF0FF321A603FE0314B1B68DB68A7
:103D5000DB68BB60BB685B687B603A697B689A42E2
:103D600003D22E4A7B6813602FE0BB6804331846E9
:103D7000FEF708FFBB689B6A002B04D0BB681833B2
:103D80001846FEF7FFFEBB68DA6A254B1B689A42AD
:103D900003D9BB68DB6A224A1360BB68DA6A134640
:103DA0009B0013449B001F4A1A44BB680433194606
:103DB0001046FEF78CFEBB68DA6A1B4B1B68DB6A99
:103DC0009A42B3D301237B61B0E7174B1B68DA6AD1
:103DD000144913469B0013449B000B441B68012BA2
:103DE00007D901237B6104E0104B1B6801330F4AA4
:103DF00013600F4B1B68002B01D001237B617B6993
:103E000018461837BD4680BD140F0020F00E002064
:103E1000A40E0020A80E0020040F00200C0F00208C
:103E2000F40E00201C0A0020180A0020FC0E0020BE
:103E3000000F002080B485B000AF2A4B1B68002B18
:103E400003D0294B01221A6046E0274B00221A605A
:103E5000264B1B68FB6010E0FB68002B0AD14FF07B
:103E6000500383F31188BFF36F8FBFF34F8F7B60D5
:103E700000BFFEE7FB68013BFB601D49FA68134683
:103E80009B0013449B000B441B68002BE4D0FA6892
:103E900013469B0013449B00154A1344BB60BB6848
:103EA0005B685A68BB685A60BB685A68BB6808336D
:103EB0009A4204D1BB685B685A68BB685A60BB68A9
:103EC0005B68DB680B4A1360084AFB681360094BA8
:103ED0001B685433084A136000BF1437BD4680BCCA
:103EE000704700BF140F0020000F0020F40E0020C8
:103EF0001C0A0020180A00202800002080B584B089
:103F000000AF786039607B68002B0AD14FF0500316
:103F100083F31188BFF36F8FBFF34F8FFB6000BF38
:103F2000FEE7074B1B68183319467868FEF7F2FD69
:103F30000121386800F084FA00BF1037BD4680BD0B
:103F4000180A002080B586B000AFF860B9607A60CA
:103F5000FB68002B0AD14FF0500383F31188BFF3A5
:103F60006F8FBFF34F8F7B6100BFFEE70A4B1B686B
:103F700018331946F868FEF7AAFD7B68002B02D0BB
:103F80004FF0FF33BB607968B86800F059FA00BFA2
:103F90001837BD4680BD00BF180A002080B586B026
:103FA00000AF78607B68DB68DB683B613B69002BB6
:103FB0000AD14FF0500383F31188BFF36F8FBFF323
:103FC0004F8FFB6000BFFEE73B6918331846FEF7D2
:103FD000D9FD1E4B1B68002B1DD13B6904331846CD
:103FE000FEF7D0FD3B69DA6A194B1B689A4203D988
:103FF0003B69DB6A164A13603B69DA6A13469B0029
:1040000013449B00134A1A443B6904331946104673
:10401000FEF75DFD05E03B69183319460E48FEF7D3
:1040200056FD3B69DA6A0D4B1B68DB6A9A4205D97B
:1040300001237B610A4B01221A6001E000237B61AE
:104040007B6918461837BD4680BD00BF140F00209D
:10405000F40E00201C0A0020AC0E0020180A0020DC
:10406000000F002080B483B000AF7860064B1A6860
:104070007B681A60054B1A687B685A6000BF0C3772
:10408000BD4680BC704700BF040F0020F00E00202A
:1040900080B588B000AF786039607B68002B0AD1AA
:1040A0004FF0500383F31188BFF36F8FBFF34F8F2F
:1040B0003B6100BFFEE73B68002B0AD14FF0500385
:1040C00083F31188BFF36F8FBFF34F8FFB6000BF87
:1040D000FEE700F00BFE1D4B1B68BB617B685B6855
:1040E000BA69D31A7B613B681B68B3F1FF3F02D109
:1040F0000023FB6123E07B681A68154B1B689A421A
:1041000007D07B685B68BA699A4202D30123FB61DE
:1041100015E03B681B687A699A420BD23B681A68C3
:104120007B69D21A3B681A607868FFF79BFF00230F
:10413000FB6104E03B6800221A600123FB6100F090
:1041400005FEFB6918462037BD4680BDF00E0020F5
:10415000040F002080B400AF034B01221A6000BF9F
:10416000BD4680BC704700BF000F002080B582B004
:1041700000AF786000F052F8064B1B68012BF9D9AC
:10418000054B4FF080521A60BFF34F8FBFF36F8F14
:10419000F0E700BF1C0A002004ED00E080B582B00B
:1041A00000AF00237B600CE07A6813469B00134449
:1041B0009B00124A13441846FEF75EFC7B680133ED
:1041C0007B607B68372BEFD90D48FEF755FC0D4817
:1041D000FEF752FC0C48FEF74FFC0C48FEF74CFC77
:1041E0000B48FEF749FC0B4B054A1A600A4B054A7F
:1041F0001A6000BF0837BD4680BD00BF1C0A002002
:104200007C0E0020900E0020AC0E0020C00E00207E
:10421000D80E0020A40E0020A80E002080B582B089
:1042200000AF19E000F062FD104BDB68DB687B60DB
:104230007B6804331846FEF7A5FC0D4B1B68013B59
:104240000B4A13600B4B1B68013B0A4A136000F0DA
:104250007DFD786800F010F8064B1B68002BE1D15B
:1042600000BF00BF0837BD4680BD00BFC00E0020A4
:10427000EC0E0020D40E002080B584B000AF786032
:104280007B685433184601F053F87B6893F8B930D3
:10429000002B08D17B681B6B184600F0EBFE78689A
:1042A00000F0E8FE18E07B6893F8B930012B03D1E9
:1042B000786800F0DFFE0FE07B6893F8B930022BDE
:1042C0000AD04FF0500383F31188BFF36F8FBFF311
:1042D0004F8FFB6000BFFEE700BF1037BD4680BDBB
:1042E00080B483B000AF0E4B1B681B68002B01D15C
:1042F000012300E00023002B04D00A4B4FF0FF32D3
:104300001A6008E0064B1B68DB68DB687B607B6833
:104310005B68044A136000BF0C37BD4680BC704721
:10432000A40E00200C0F002080B483B000AF0B4B14
:104330001B68002B02D101237B6008E0084B1B683F
:10434000002B02D102237B6001E000237B607B68AD
:1043500018460C37BD4680BC704700BFF80E0020E1
:10436000140F002080B586B000AF78607B683B6199
:1043700000237B617B68002B56D02E4B1B683A696B
:104380009A420AD04FF0500383F31188BFF36F8F26
:10439000BFF34F8FFB6000BFFEE73B691B6D002B37
:1043A0000AD14FF0500383F31188BFF36F8FBFF32F
:1043B0004F8FBB6000BFFEE73B691B6D5A1E3B6918
:1043C0001A653B69DA6A3B69DB6C9A422CD03B691F
:1043D0001B6D002B28D13B6904331846FEF7D2FB36
:1043E0003B69DA6C3B69DA623B69DB6AC3F138022C
:1043F0003B699A613B69DA6A0F4B1B689A4203D9A1
:104400003B69DB6A0C4A13603B69DA6A13469B001E
:1044100013449B00094A1A443B6904331946104669
:10442000FEF755FB01237B617B6918461837BD46B3
:1044300080BD00BF180A0020F40E00201C0A0020D6
:1044400080B584B000AF78603960214B1B68FB6099
:10445000204B1B6804331846FEF794FB7B68B3F1CE
:10446000FF3F0AD13B68002B07D01A4B1B6804336F
:1044700019461948FEF72BFB26E0FA687B681344BF
:10448000BB60144B1B68BA685A60BA68FB689A42F2
:1044900009D2124B1A680F4B1B6804331946104699
:1044A000FEF738FB10E00E4B1A680A4B1B6804330A
:1044B00019461046FEF72EFB0A4B1B68BA689A4253
:1044C00002D2084ABB68136000BF1037BD4680BDEA
:1044D000F00E0020180A0020D80E0020A80E0020A0
:1044E000A40E00200C0F002080B58AB004AF00237A
:1044F0007B6100F0CBFA1C4B1B68002B21D0002302
:10450000FB600023BB603A1D07F1080107F10C03B3
:104510001846FEF797FA7968BB68FA680292019329
:104520000223009300230A4610491148FFF738F888
:104530000346104A13600F4B1B68002B01D0012368
:104540007B617B69002B0AD14FF0500383F3118804
:10455000BFF36F8FBFF34F8F3B6100BFFEE77B69F7
:1045600018461837BD4680BD480F0020D4540008B7
:10457000954600084C0F002080B58AB000AFF86067
:10458000B9607A603B6000237B62FB68002B0AD134
:104590004FF0500383F31188BFF36F8FBFF34F8F3A
:1045A0003B6200BFFEE71A4B1B68002B2AD0BB689A
:1045B0003B617B687B61FB68BB61BB68052B18DCDA
:1045C000FFF7B2FE0346022B09D1114B186807F121
:1045D000100100233A6BFEF701FC786212E00C4BED
:1045E000186807F1100100230022FEF7F7FB78623C
:1045F00008E0074B186807F1100100233A68FEF73E
:10460000EBFC78627B6A18462837BD4680BD00BF48
:10461000480F002080B588B002AF786039601C4B2D
:104620001B68DB68DB687B617B6904331846FEF737
:10463000A9FA7B69DB69012B22D17B699A697B68C6
:10464000D1187B683A68786900F0C8F80346002BF7
:1046500016D00023009300237A6800217869FFF7C1
:104660008BFF38613B69002B0AD14FF0500383F375
:104670001188BFF36F8FBFF34F8FFB6000BFFEE762
:104680007B695B6A7869984700BF1837BD4680BD73
:10469000400F002080B584B000AF786007F10803B8
:1046A000184600F057F8F860BB681946F86800F043
:1046B00003F800F0D5F8F1E780B584B000AF78607A
:1046C0003960FFF73FFA07F10803184600F066F873
:1046D000F860BB68002B30D13B68002B0AD17A68A8
:1046E000FB689A4206D8FFF73BFAF9687868FFF74B
:1046F00091FF24E03B68002B08D0134B1B681B681C
:10470000002B0CBF01230023DBB23B600F4B18686A
:104710007A68FB68D31A3A681946FEF70DFFFFF76F
:104720001FFA0346002B0AD1094B4FF080521A6042
:10473000BFF34F8FBFF36F8F01E0FFF711FA00BF98
:104740001037BD4680BD00BF440F0020480F002039
:1047500004ED00E080B485B000AF78600E4B1B68BC
:104760001B68002B0CBF01230023DBB21A467B68B9
:104770001A607B681B68002B05D1074B1B68DB6840
:104780001B68FB6001E00023FB60FB6818461437E0
:10479000BD4680BC704700BF400F002080B584B08C
:1047A00000AF7860FFF77AFAF8600B4B1B68FA6885
:1047B0009A4205D200F008F97B6801221A6002E0F3
:1047C0007B6800221A60044AFB681360FB68184685
:1047D0001037BD4680BD00BF500F002080B586B0A9
:1047E00000AFF860B9607A603B6000237B61FB68D2
:1047F000BA685A60FB68FA681A61BA687B689A42BC
:1048000012D87A683B68D21AFB689B699A4202D335
:1048100001237B611BE0104B1A68FB6804331946C7
:104820001046FEF777F912E07A683B689A4206D2A2
:10483000BA683B689A4202D301237B6107E0074BC9
:104840001A68FB68043319461046FEF763F97B6962
:1048500018461837BD4680BD440F0020400F002089
:1048600080B58EB002AF9DE07B68002B18DA3B1D4F
:104870000433FB62FB6A002B0AD14FF0500383F331
:104880001188BFF36F8FBFF34F8FFB6100BFFEE74F
:10489000FB6A1B68FA6A5068FA6A92681146984780
:1048A0007B68002B7DDBFB68BB62BB6A5B69002B0E
:1048B00004D0BB6A04331846FEF764F93B46184639
:1048C000FFF76CFF78627B68092B6BD801A252F866
:1048D00023F000BFFD480008FD480008FD4800081F
:1048E000A54900085949000891490008FD480008F9
:1048F000FD480008A549000859490008BA68BB6A84
:104900009B69D118BB687A6AB86AFFF767FF0346EC
:10491000002B47D0BB6A5B6AB86A9847BB6ADB6901
:10492000012B3FD1BA68BB6A9B691A4400230093EC
:1049300000230021B86AFFF71FFE38623B6A002B94
:1049400030D14FF0500383F31188BFF36F8FBFF363
:104950004F8FBB6100BFFEE7BA68BB6A9A61BB6A52
:104960009B69002B0AD14FF0500383F31188BFF3EA
:104970006F8FBFF34F8F7B6100BFFEE7BB6A9A6901
:104980007B6AD1187B6A7A6AB86AFFF727FF09E069
:10499000BB6A93F82C30002B04D1B86A00F06AFB94
:1049A00000E000BF074B1B68391D00221846FEF7C8
:1049B000ABFB0346002B7FF457AF00BF00BF30377F
:1049C000BD4680BD480F002080B588B002AF45E0ED
:1049D0002C4B1B68DB681B683B612A4B1B68DB6840
:1049E000DB68FB60FB6804331846FEF7CBF8FB6816
:1049F0005B6AF8689847FB68DB69012B2ED1FB687E
:104A00009B693A691344BB60BA683B699A420ED904
:104A1000FB68BA685A60FB68FA681A61194B1A6831
:104A2000FB68043319461046FEF774F816E00023BD
:104A3000009300233A690021F868FFF79DFD786034
:104A40007B68002B0AD14FF0500383F31188BFF32A
:104A50006F8FBFF34F8F3B6000BFFEE7094B1B68B2
:104A60001B68002BB4D1074B1B687B61064B1B688E
:104A7000044A1360044A7B69136000BF1837BD46BF
:104A800080BD00BF400F0020440F002080B582B0E1
:104A900002AF00F02BF9154B1B68002B20D11448F6
:104AA000FDF7EAFF1348FDF7E7FF134B104A1A60C2
:104AB000124B104A1A6000230093114B114A102127
:104AC0000A20FEF7F1F80346084A1360074B1B68FB
:104AD000002B05D0054B1B680B491846FEF704FD5B
:104AE00000F034F900BFBD4680BD00BF480F002074
:104AF000180F00202C0F0020400F0020440F002032
:104B0000F40F0020540F0020DC54000880B485B05E
:104B100000AFF860B9607A60FB68043BFB60FB683B
:104B20004FF080721A60FB68043BFB60BB6823F0A7
:104B30000102FB681A60FB68043BFB60084AFB68E3
:104B40001A60FB68143BFB607A68FB681A60FB68BC
:104B5000203BFB60FB6818461437BD4680BC70479D
:104B6000654B000880B485B000AF00237B60124B1A
:104B70001B68B3F1FF3F0AD04FF0500383F3118855
:104B8000BFF36F8FBFF34F8FFB6000BFFEE74FF0A7
:104B9000500383F31188BFF36F8FBFF34F8FBB6058
:104BA00000BF00BF7B68002BFCD000BF00BF1437E4
:104BB000BD4680BC704700BF2400002000000000FC
:104BC000074B19680868B0E8F00F80F30988BFF355
:104BD0006F8F4FF0000080F311884EF00D0E70477C
:104BE000180A002000BF00BF06480068006880F374
:104BF000088862B661B6BFF34F8FBFF36F8F00DFD7
:104C000000BF00BF08ED00E080B584B000AF324BBC
:104C1000FB60FB681B78DBB27B60FB68FF221A70CD
:104C2000FB681B78DBB2FB70FB78DBB203F0500350
:104C3000DAB22A4B1A702A4B07221A6009E0284B75
:104C40001B68013B264A1360FB78DBB25B00DBB2DA
:104C5000FB70FB78DBB203F08003802BEFD0204B9E
:104C60001B68C3F10703042B0AD04FF0500383F3F2
:104C70001188BFF36F8FBFF34F8FBB6000BFFEE79C
:104C8000174B1B681B02164A1360154B1B6803F475
:104C9000E063134A13607B68DAB2FB681A70114B49
:104CA0001B68104A43F4700313600E4B1B680D4AD7
:104CB00043F07043136000F0B9F80B4B00221A6008
:104CC000FFF792FFFFF7B6F8FFF74CFF00231846F7
:104CD0001037BD4680BD00BF00E400E04410002056
:104CE0004810002020ED00E02400002080B483B0B4
:104CF00000AF4FF0500383F31188BFF36F8FBFF302
:104D00004F8F7B6000BF0F4B1B6801330D4A136050
:104D10000C4B1B68012B0FD10B4B1B68DBB2002B1C
:104D20000AD04FF0500383F31188BFF36F8FBFF3A6
:104D30004F8F3B6000BFFEE700BF0C37BD4680BC15
:104D4000704700BF2400002004ED00E080B483B071
:104D500000AF114B1B68002B0AD14FF0500383F3B7
:104D60001188BFF36F8FBFF34F8F7B6000BFFEE7EB
:104D7000094B1B68013B084A1360074B1B68002B5B
:104D800005D100233B603B6883F3118800BF00BF5F
:104D90000C37BD4680BC7047240000200000000096
:104DA000EFF30980BFF36F8F0D4B1A6820E9F00F06
:104DB00010602DE908404FF0500080F31188FFF794
:104DC00039F84FF0000080F31188BDE808401968F9
:104DD0000868B0E8F00F80F30988BFF36F8F704761
:104DE000180A002000BF00BF80B582B000AF4FF0AE
:104DF000500383F31188BFF36F8FBFF34F8F7B6036
:104E000000BFFEF759FF0346002B03D0064B4FF0BF
:104E100080521A6000233B603B6883F3118800BF17
:104E200000BF0837BD4680BD04ED00E080B400AF90
:104E30000A4B00221A600A4B00221A60094B1B68B9
:104E4000094AA2FB03239B09084A013B1360034B59
:104E500007221A6000BFBD4680BC704710E000E02A
:104E600018E000E018000020D34D621014E000E0CC
:104E700080B485B000AFEFF30583FB60FB680F2BB8
:104E800014D9164AFB6813441B78FB72144B1B7829
:104E9000FA7A9A420AD24FF0500383F31188BFF393
:104EA0006F8FBFF34F8F7B6000BFFEE70D4B1B681A
:104EB00003F4E0620C4B1B689A420AD94FF050038E
:104EC00083F31188BFF36F8FBFF34F8F3B6000BF39
:104ED000FEE700BF1437BD4680BC7047F0E300E03A
:104EE000441000200CED00E04810002080B58AB08E
:104EF00000AF78600023FB61FEF724FE584B1B686F
:104F0000002B01D100F010F9564B1A687B68134052
:104F1000002B40F08E807B68002B1DD008227B6820
:104F200013447B607B6803F00703002B14D07B687D
:104F300023F0070308337B607B6803F00703002B33
:104F40000AD04FF0500383F31188BFF36F8FBFF384
:104F50004F8F7B6100BFFEE77B68002B69D0424B1F
:104F60001B687A689A4264D8404B3B623F4B1B688F
:104F70007B6204E07B6A3B627B6A1B687B627B6AC4
:104F80005B687A689A4203D97B6A1B68002BF1D16F
:104F9000334B1B687A6A9A424BD03B6A1B680822E3
:104FA0001344FB617B6A1A683B6A1A607B6A5A6821
:104FB0007B68D21A08235B009A421FD97A6A7B6801
:104FC0001344BB61BB6903F00703002B0AD04FF009
:104FD000500383F31188BFF36F8FBFF34F8F3B6193
:104FE00000BFFEE77B6A5A687B68D21ABB695A60C9
:104FF0007B6A7A685A60B86900F0F8F81A4B1A6848
:105000007B6A5B68D31A184A1360174B1A68184BEF
:105010001B689A4203D2144B1B68154A13607B6AC3
:105020005A68104B1B681A437B6A5A607B6A0022DD
:105030001A60FEF795FDFB6903F00703002B0AD009
:105040004FF0500383F31188BFF36F8FBFF34F8F7F
:10505000FB6000BFFEE7FB6918462837BD4680BDF0
:10506000541C0020601C0020581C00204C1C0020F8
:105070005C1C002080B586B000AF78607B687B61E7
:105080007B68002B48D008235B427A6913447B611C
:105090007B693B613B695A68214B1B681340002BBD
:1050A0000AD14FF0500383F31188BFF36F8FBFF322
:1050B0004F8FFB6000BFFEE73B691B68002B0AD0E7
:1050C0004FF0500383F31188BFF36F8FBFF34F8FFF
:1050D000BB6000BFFEE73B695A68114B1B68134079
:1050E000002B19D03B691B68002B15D13B695A680E
:1050F0000B4B1B68DB431A403B695A60FEF722FDED
:105100003B695A68074B1B681344064A13603869A9
:1051100000F06CF8FEF724FD00BF1837BD4680BDD7
:10512000601C0020581C002080B485B000AF4FF4F4
:105130004063BB60274BFB60FB6803F00703002B59
:105140000CD0FB680733FB60FB6823F00703FB60B0
:10515000BA68FB68D31A1F4A1344BB60FB687B60C4
:105160001D4A7B6813601C4B00225A607B68BA683A
:105170001344FB600822FB689B1AFB60FB6823F06A
:105180000703FB60FB68154A1360144B1B68002281
:105190005A60124B1B6800221A607B683B603B68B8
:1051A000FA68D21A3B685A600C4B1A683B681A605E
:1051B0003B685B680A4A13603B685B68094A136096
:1051C000094B4FF000421A6000BF1437BD4680BC47
:1051D000704700BF4C1000204C1C0020541C0020C5
:1051E0005C1C0020581C0020601C002080B485B08E
:1051F00000AF7860274BFB6002E0FB681B68FB6038
:10520000FB681B687A689A42F7D8FB68BB60FB684A
:105210005B68BA6813447A689A4208D1FB685A6896
:105220007B685B681A44FB685A60FB687B607B683C
:10523000BB607B685B68BA681A44FB681B689A426B
:1052400018D1FB681A68144B1B689A420DD07B6812
:105250005A68FB681B685B681A447B685A60FB6885
:105260001B681A687B681A6008E00B4B1A687B6839
:105270001A6003E0FB681A687B681A60FA687B684A
:105280009A4202D0FB687A681A6000BF1437BD46A4
:1052900080BC70474C1C0020541C002070B50026B8
:1052A0000C4D0D4C641BA410A64209D100F0F0F87F
:1052B00000260A4D0A4C641BA410A64205D170BDFD
:1052C00055F8043B98470136EEE755F8043B9847FC
:1052D0000136F2E7A4550008A4550008A4550008BB
:1052E000A8550008704770470A44914200F1FF3307
:1052F00000D1704710B511F8014B914203F8014FEE
:10530000F9D110BD03460244934200D1704703F81F
:10531000011BF9E738B50C460968054609B1FFF7E6
:10532000F9FF21462846BDE8384000F069B8000082
:105330002C4B70B51B680446834251D0436A43B17D
:10534000DB68002B4AD1636A196811B1204600F06E
:1053500057F8616911B1204600F052F8616A11B145
:10536000204600F04DF8A16B11B1204600F048F83E
:10537000E16B11B1204600F043F8216C11B12046D9
:1053800000F03EF8E16D11B1204600F039F8A16D52
:1053900011B1204600F034F8616B11B1204600F0E5
:1053A0002FF8A369E3B12046A36A9847A16CB9B16D
:1053B0002046BDE87040FFF7ADBF495941B90435FB
:1053C000636A802DD968F8D1204600F019F8BAE751
:1053D0000E68204600F014F83146EFE70025EFE7AD
:1053E00070BD00BF280000200148FFF77BBF00BF51
:1053F000641C00200148FFF776BF00BF641C00203A
:1054000038B50546002940D051F8043C0C1F002B4C
:10541000B8BFE418FFF7E8FF1C4A136833B96360AC
:1054200014602846BDE83840FFF7E4BFA34208D91E
:10543000206821188B4201BF19685B680918216038
:10544000EDE71A465B680BB1A342FAD91168501810
:10545000A0420BD120680144501883421160E0D172
:1054600018685B68014411605360DAE702D90C23C5
:105470002B60D6E7206821188B4201BF19685B6852
:105480000918216063605460CBE738BD681C0020B8
:10549000F8B500BFF8BC08BC9E467047F8B500BF21
:0854A000F8BC08BC9E467047F1
:1054A80064656661756C745461736B004D50555436
:1054B80061736B0002030405060708090A0B0C0D4B
:1054C8000E0F101049444C4500000000546D722026
:1054D80053766300546D725100000000A854000810
:1054E80000000000000000000000000000000000B4
:1054F800000200001800000000000000000000008A
:10550800B454000800000000000000000000000083
:105518000000000000040000080000000000000077
:105528000000000000000000000000000102030469
:10553800060708090000000001020304000000003B
:105548000000000000000000000000000000000053
:105558000000000000000000000000000000000043
:105568000000000000000000000000000000000033
:105578000000000000000000000000000000000023
:105588000000000000000000000000000000000013
:0C55980000000000000000000000000007
:0455A40035010008C5
:0455A80011010008E5
:1055AC00CDCCCC3DCDCC4C3E9A99993ECDCCCC3E7D
:1055BC000000003F9A99193F0024F40010000000ED
:1055CC0001000000AAAAAAAA2C00002000000000DA
:1055DC00645500088455000844550008000000007C
:1055EC0000000000000000000000000000000000AF
:1055FC00000000000000000000000000000000009F
:10560C00000000000000000000000000000000008E
:10561C00000000000000000000000000000000007E
:0C562C0000000000000000000000000072
:0400000508000DC919
:00000001FF
